{
  "_format": "hh-sol-artifact-1",
  "contractName": "IglooSubjectAggregator",
  "sourceName": "contracts/IglooSubjectAggregator.sol",
  "abi": [
    {
      "inputs": [
        {
          "internalType": "contract IglooSubject",
          "name": "_subject",
          "type": "address"
        }
      ],
      "stateMutability": "nonpayable",
      "type": "constructor"
    },
    {
      "inputs": [
        {
          "internalType": "address",
          "name": "holder",
          "type": "address"
        },
        {
          "internalType": "address[]",
          "name": "subjects",
          "type": "address[]"
        }
      ],
      "name": "getBulkKeyBalances",
      "outputs": [
        {
          "internalType": "uint256[]",
          "name": "",
          "type": "uint256[]"
        }
      ],
      "stateMutability": "view",
      "type": "function"
    },
    {
      "inputs": [
        {
          "internalType": "address[]",
          "name": "subjects",
          "type": "address[]"
        }
      ],
      "name": "getBulkKeyPrices",
      "outputs": [
        {
          "internalType": "uint256[]",
          "name": "",
          "type": "uint256[]"
        }
      ],
      "stateMutability": "view",
      "type": "function"
    },
    {
      "inputs": [],
      "name": "subject",
      "outputs": [
        {
          "internalType": "contract IglooSubject",
          "name": "",
          "type": "address"
        }
      ],
      "stateMutability": "view",
      "type": "function"
    }
  ],
  "bytecode": "0x60a060405234801561001057600080fd5b5060405161061738038061061783398101604081905261002f91610040565b6001600160a01b0316608052610070565b60006020828403121561005257600080fd5b81516001600160a01b038116811461006957600080fd5b9392505050565b60805161057f61009860003960008181604b01528181610115015261025e015261057f6000f3fe608060405234801561001057600080fd5b50600436106100415760003560e01c80630a59a98c14610046578063247534821461008a5780638ea70ce2146100aa575b600080fd5b61006d7f000000000000000000000000000000000000000000000000000000000000000081565b6040516001600160a01b0390911681526020015b60405180910390f35b61009d610098366004610424565b6100bd565b6040516100819190610461565b61009d6100b83660046104a5565b610206565b60606000825167ffffffffffffffff8111156100db576100db610350565b604051908082528060200260200182016040528015610104578160200160208202803683370190505b50905060005b83518110156101ff577f00000000000000000000000000000000000000000000000000000000000000006001600160a01b0316634635256e858381518110610154576101546104f3565b602002602001015160016040518363ffffffff1660e01b815260040161018f9291906001600160a01b03929092168252602082015260400190565b602060405180830381865afa1580156101ac573d6000803e3d6000fd5b505050506040513d601f19601f820116820180604052508101906101d09190610509565b8282815181106101e2576101e26104f3565b6020908102919091010152806101f781610522565b91505061010a565b5092915050565b60606000825167ffffffffffffffff81111561022457610224610350565b60405190808252806020026020018201604052801561024d578160200160208202803683370190505b50905060005b8351811015610348577f00000000000000000000000000000000000000000000000000000000000000006001600160a01b031663fc255d6585838151811061029d5761029d6104f3565b6020026020010151876040518363ffffffff1660e01b81526004016102d89291906001600160a01b0392831681529116602082015260400190565b602060405180830381865afa1580156102f5573d6000803e3d6000fd5b505050506040513d601f19601f820116820180604052508101906103199190610509565b82828151811061032b5761032b6104f3565b60209081029190910101528061034081610522565b915050610253565b509392505050565b634e487b7160e01b600052604160045260246000fd5b80356001600160a01b038116811461037d57600080fd5b919050565b600082601f83011261039357600080fd5b8135602067ffffffffffffffff808311156103b0576103b0610350565b8260051b604051601f19603f830116810181811084821117156103d5576103d5610350565b6040529384528581018301938381019250878511156103f357600080fd5b83870191505b848210156104195761040a82610366565b835291830191908301906103f9565b979650505050505050565b60006020828403121561043657600080fd5b813567ffffffffffffffff81111561044d57600080fd5b61045984828501610382565b949350505050565b6020808252825182820181905260009190848201906040850190845b818110156104995783518352928401929184019160010161047d565b50909695505050505050565b600080604083850312156104b857600080fd5b6104c183610366565b9150602083013567ffffffffffffffff8111156104dd57600080fd5b6104e985828601610382565b9150509250929050565b634e487b7160e01b600052603260045260246000fd5b60006020828403121561051b57600080fd5b5051919050565b60006001820161054257634e487b7160e01b600052601160045260246000fd5b506001019056fea2646970667358221220f1456ac22b82686e077e809882d720070793003c04ad0a625e5cef3a10254f8b64736f6c63430008140033",
  "linkReferences": {},
  "deployedLinkReferences": {}
}