{
  "_format": "hh-sol-artifact-1",
  "contractName": "IglooSubject",
  "sourceName": "contracts/IglooSubject.sol",
  "abi": [
    {
      "anonymous": false,
      "inputs": [
        {
          "indexed": false,
          "internalType": "uint8",
          "name": "version",
          "type": "uint8"
        }
      ],
      "name": "Initialized",
      "type": "event"
    },
    {
      "anonymous": false,
      "inputs": [
        {
          "indexed": true,
          "internalType": "address",
          "name": "previousOwner",
          "type": "address"
        },
        {
          "indexed": true,
          "internalType": "address",
          "name": "newOwner",
          "type": "address"
        }
      ],
      "name": "OwnershipTransferred",
      "type": "event"
    },
    {
      "anonymous": false,
      "inputs": [
        {
          "indexed": true,
          "internalType": "address",
          "name": "token",
          "type": "address"
        }
      ],
      "name": "SetMembershipToken",
      "type": "event"
    },
    {
      "anonymous": false,
      "inputs": [
        {
          "indexed": false,
          "internalType": "uint256",
          "name": "weight",
          "type": "uint256"
        }
      ],
      "name": "SetMembershipWeight",
      "type": "event"
    },
    {
      "anonymous": false,
      "inputs": [
        {
          "indexed": true,
          "internalType": "address",
          "name": "destination",
          "type": "address"
        }
      ],
      "name": "SetProtocolFeeDestination",
      "type": "event"
    },
    {
      "anonymous": false,
      "inputs": [
        {
          "indexed": false,
          "internalType": "uint256",
          "name": "percent",
          "type": "uint256"
        }
      ],
      "name": "SetProtocolFeePercent",
      "type": "event"
    },
    {
      "anonymous": false,
      "inputs": [
        {
          "indexed": false,
          "internalType": "uint256",
          "name": "percent",
          "type": "uint256"
        }
      ],
      "name": "SetSubjectFeePercent",
      "type": "event"
    },
    {
      "anonymous": false,
      "inputs": [
        {
          "indexed": true,
          "internalType": "address",
          "name": "trader",
          "type": "address"
        },
        {
          "indexed": true,
          "internalType": "address",
          "name": "subject",
          "type": "address"
        },
        {
          "indexed": true,
          "internalType": "bool",
          "name": "isBuy",
          "type": "bool"
        },
        {
          "indexed": false,
          "internalType": "uint256",
          "name": "amount",
          "type": "uint256"
        },
        {
          "indexed": false,
          "internalType": "uint256",
          "name": "price",
          "type": "uint256"
        },
        {
          "indexed": false,
          "internalType": "uint256",
          "name": "protocolFee",
          "type": "uint256"
        },
        {
          "indexed": false,
          "internalType": "uint256",
          "name": "subjectFee",
          "type": "uint256"
        },
        {
          "indexed": false,
          "internalType": "uint256",
          "name": "supply",
          "type": "uint256"
        }
      ],
      "name": "Trade",
      "type": "event"
    },
    {
      "inputs": [
        {
          "internalType": "address",
          "name": "subject",
          "type": "address"
        },
        {
          "internalType": "uint256",
          "name": "amount",
          "type": "uint256"
        }
      ],
      "name": "buyKeys",
      "outputs": [],
      "stateMutability": "payable",
      "type": "function"
    },
    {
      "inputs": [
        {
          "internalType": "uint256",
          "name": "price",
          "type": "uint256"
        },
        {
          "internalType": "address",
          "name": "subject",
          "type": "address"
        }
      ],
      "name": "calculateAdditionalFee",
      "outputs": [
        {
          "internalType": "uint256",
          "name": "",
          "type": "uint256"
        }
      ],
      "stateMutability": "view",
      "type": "function"
    },
    {
      "inputs": [
        {
          "internalType": "address",
          "name": "subject",
          "type": "address"
        },
        {
          "internalType": "uint256",
          "name": "amount",
          "type": "uint256"
        }
      ],
      "name": "getBuyPrice",
      "outputs": [
        {
          "internalType": "uint256",
          "name": "",
          "type": "uint256"
        }
      ],
      "stateMutability": "view",
      "type": "function"
    },
    {
      "inputs": [
        {
          "internalType": "address",
          "name": "subject",
          "type": "address"
        },
        {
          "internalType": "uint256",
          "name": "amount",
          "type": "uint256"
        }
      ],
      "name": "getBuyPriceAfterFee",
      "outputs": [
        {
          "internalType": "uint256",
          "name": "",
          "type": "uint256"
        }
      ],
      "stateMutability": "view",
      "type": "function"
    },
    {
      "inputs": [
        {
          "internalType": "uint256",
          "name": "supply",
          "type": "uint256"
        },
        {
          "internalType": "uint256",
          "name": "amount",
          "type": "uint256"
        }
      ],
      "name": "getPrice",
      "outputs": [
        {
          "internalType": "uint256",
          "name": "",
          "type": "uint256"
        }
      ],
      "stateMutability": "pure",
      "type": "function"
    },
    {
      "inputs": [
        {
          "internalType": "address",
          "name": "subject",
          "type": "address"
        },
        {
          "internalType": "uint256",
          "name": "amount",
          "type": "uint256"
        }
      ],
      "name": "getSellPrice",
      "outputs": [
        {
          "internalType": "uint256",
          "name": "",
          "type": "uint256"
        }
      ],
      "stateMutability": "view",
      "type": "function"
    },
    {
      "inputs": [
        {
          "internalType": "address",
          "name": "subject",
          "type": "address"
        },
        {
          "internalType": "uint256",
          "name": "amount",
          "type": "uint256"
        }
      ],
      "name": "getSellPriceAfterFee",
      "outputs": [
        {
          "internalType": "uint256",
          "name": "",
          "type": "uint256"
        }
      ],
      "stateMutability": "view",
      "type": "function"
    },
    {
      "inputs": [
        {
          "internalType": "address payable",
          "name": "_protocolFeeDestination",
          "type": "address"
        },
        {
          "internalType": "uint256",
          "name": "_protocolFeePercent",
          "type": "uint256"
        },
        {
          "internalType": "uint256",
          "name": "_subjectFeePercent",
          "type": "uint256"
        }
      ],
      "name": "initialize",
      "outputs": [],
      "stateMutability": "nonpayable",
      "type": "function"
    },
    {
      "inputs": [
        {
          "internalType": "address",
          "name": "",
          "type": "address"
        },
        {
          "internalType": "address",
          "name": "",
          "type": "address"
        }
      ],
      "name": "keysBalance",
      "outputs": [
        {
          "internalType": "uint256",
          "name": "",
          "type": "uint256"
        }
      ],
      "stateMutability": "view",
      "type": "function"
    },
    {
      "inputs": [
        {
          "internalType": "address",
          "name": "",
          "type": "address"
        }
      ],
      "name": "keysSupply",
      "outputs": [
        {
          "internalType": "uint256",
          "name": "",
          "type": "uint256"
        }
      ],
      "stateMutability": "view",
      "type": "function"
    },
    {
      "inputs": [],
      "name": "membershipToken",
      "outputs": [
        {
          "internalType": "contract IERC20",
          "name": "",
          "type": "address"
        }
      ],
      "stateMutability": "view",
      "type": "function"
    },
    {
      "inputs": [],
      "name": "membershipWeight",
      "outputs": [
        {
          "internalType": "uint256",
          "name": "",
          "type": "uint256"
        }
      ],
      "stateMutability": "view",
      "type": "function"
    },
    {
      "inputs": [],
      "name": "owner",
      "outputs": [
        {
          "internalType": "address",
          "name": "",
          "type": "address"
        }
      ],
      "stateMutability": "view",
      "type": "function"
    },
    {
      "inputs": [],
      "name": "protocolFeeDestination",
      "outputs": [
        {
          "internalType": "address payable",
          "name": "",
          "type": "address"
        }
      ],
      "stateMutability": "view",
      "type": "function"
    },
    {
      "inputs": [],
      "name": "protocolFeePercent",
      "outputs": [
        {
          "internalType": "uint256",
          "name": "",
          "type": "uint256"
        }
      ],
      "stateMutability": "view",
      "type": "function"
    },
    {
      "inputs": [],
      "name": "renounceOwnership",
      "outputs": [],
      "stateMutability": "nonpayable",
      "type": "function"
    },
    {
      "inputs": [
        {
          "internalType": "address",
          "name": "subject",
          "type": "address"
        },
        {
          "internalType": "uint256",
          "name": "amount",
          "type": "uint256"
        }
      ],
      "name": "sellKeys",
      "outputs": [],
      "stateMutability": "nonpayable",
      "type": "function"
    },
    {
      "inputs": [
        {
          "internalType": "address",
          "name": "_token",
          "type": "address"
        }
      ],
      "name": "setMembershipToken",
      "outputs": [],
      "stateMutability": "nonpayable",
      "type": "function"
    },
    {
      "inputs": [
        {
          "internalType": "uint256",
          "name": "_weight",
          "type": "uint256"
        }
      ],
      "name": "setMembershipWeight",
      "outputs": [],
      "stateMutability": "nonpayable",
      "type": "function"
    },
    {
      "inputs": [
        {
          "internalType": "address payable",
          "name": "_feeDestination",
          "type": "address"
        }
      ],
      "name": "setProtocolFeeDestination",
      "outputs": [],
      "stateMutability": "nonpayable",
      "type": "function"
    },
    {
      "inputs": [
        {
          "internalType": "uint256",
          "name": "_feePercent",
          "type": "uint256"
        }
      ],
      "name": "setProtocolFeePercent",
      "outputs": [],
      "stateMutability": "nonpayable",
      "type": "function"
    },
    {
      "inputs": [
        {
          "internalType": "uint256",
          "name": "_feePercent",
          "type": "uint256"
        }
      ],
      "name": "setSubjectFeePercent",
      "outputs": [],
      "stateMutability": "nonpayable",
      "type": "function"
    },
    {
      "inputs": [],
      "name": "subjectFeePercent",
      "outputs": [
        {
          "internalType": "uint256",
          "name": "",
          "type": "uint256"
        }
      ],
      "stateMutability": "view",
      "type": "function"
    },
    {
      "inputs": [
        {
          "internalType": "address",
          "name": "newOwner",
          "type": "address"
        }
      ],
      "name": "transferOwnership",
      "outputs": [],
      "stateMutability": "nonpayable",
      "type": "function"
    }
  ],
  "bytecode": "0x608060405234801561001057600080fd5b50611487806100206000396000f3fe60806040526004361061014b5760003560e01c80637a1ac61e116100b6578063a49834211161006f578063a49834211461038f578063d6e6eb9f146103af578063e575ab96146103c5578063ec80b866146103f2578063f2fde38b14610412578063fc255d651461043257600080fd5b80637a1ac61e146102db5780638bbe34ea146102fb5780638da5cb5b146103115780639111ac891461032f5780639ae717811461034f578063a10786b01461036f57600080fd5b80634ce7957c116101085780634ce7957c1461021b578063592de11d146102535780635a8a764e146102665780635cf4ee911461028657806362ad351b146102a6578063715018a6146102c657600080fd5b8063034f6436146101505780630f026f6d14610172578063210db1c8146101a55780632267a89c146101c557806324dc441d146101e55780634635256e146101fb575b600080fd5b34801561015c57600080fd5b5061017061016b366004611261565b61046a565b005b34801561017e57600080fd5b5061019261018d36600461127e565b6104bc565b6040519081526020015b60405180910390f35b3480156101b157600080fd5b506101706101c03660046112aa565b610536565b3480156101d157600080fd5b506101926101e036600461127e565b6105e3565b3480156101f157600080fd5b5061019260995481565b34801561020757600080fd5b5061019261021636600461127e565b610651565b34801561022757600080fd5b5060975461023b906001600160a01b031681565b6040516001600160a01b03909116815260200161019c565b61017061026136600461127e565b61067b565b34801561027257600080fd5b506101706102813660046112aa565b61069b565b34801561029257600080fd5b506101926102a13660046112c3565b6106d8565b3480156102b257600080fd5b50609a5461023b906001600160a01b031681565b3480156102d257600080fd5b506101706107ae565b3480156102e757600080fd5b506101706102f63660046112e5565b6107c2565b34801561030757600080fd5b50610192609b5481565b34801561031d57600080fd5b506033546001600160a01b031661023b565b34801561033b57600080fd5b5061017061034a36600461127e565b610995565b34801561035b57600080fd5b5061019261036a36600461127e565b6109b0565b34801561037b57600080fd5b5061017061038a366004611261565b6109de565b34801561039b57600080fd5b506101706103aa3660046112aa565b610a30565b3480156103bb57600080fd5b5061019260985481565b3480156103d157600080fd5b506101926103e0366004611261565b609d6020526000908152604090205481565b3480156103fe57600080fd5b5061019261040d36600461131a565b610a6d565b34801561041e57600080fd5b5061017061042d366004611261565b610b77565b34801561043e57600080fd5b5061019261044d36600461134a565b609c60209081526000928352604080842090915290825290205481565b610472610bf0565b609a80546001600160a01b0319166001600160a01b0383169081179091556040517f672b3ebe123fdce8664f5ad6c05f3303cd5271efe87b39a4198660792b4718f890600090a250565b6000806104c98484610651565b90506000670de0b6b3a7640000609854836104e4919061138e565b6104ee91906113a5565b90506000670de0b6b3a764000060995484610509919061138e565b61051391906113a5565b90508061052083856113c7565b61052a91906113c7565b93505050505b92915050565b61053e610bf0565b6098548111156105a75760405162461bcd60e51b815260206004820152602960248201527f5765696768742063616e6e6f74206578636565642070726f746f636f6c20666560448201526819481c195c98d95b9d60ba1b60648201526084015b60405180910390fd5b609b8190556040518181527f2ade04560723d86fd91731c029f53074f3638e6c08be4be7847dafb849e749db906020015b60405180910390a150565b6000806105f084846109b0565b90506000670de0b6b3a76400006098548361060b919061138e565b61061591906113a5565b90506000670de0b6b3a764000060995484610630919061138e565b61063a91906113a5565b90508061064783856113da565b61052a91906113da565b6001600160a01b0382166000908152609d602052604081205461067490836106d8565b9392505050565b60006106878383610651565b90506106968383836001610c4a565b505050565b6106a3610bf0565b60998190556040518181527f4cc9c78be70d0d7d2389ea36662194ed1bfcd576233fb4241620bb2ba8825dee906020016105d8565b60008060066106e885600261138e565b6106f39060016113c7565b6106fe8660016113c7565b610708908761138e565b610712919061138e565b61071c91906113a5565b90506000600661072c85876113c7565b61073790600261138e565b6107429060016113c7565b8561074e8860016113c7565b61075891906113c7565b61076287896113c7565b61076c919061138e565b610776919061138e565b61078091906113a5565b9050600061078e83836113da565b905060646107a482670de0b6b3a764000061138e565b61052a91906113a5565b6107b6610bf0565b6107c06000610fcc565b565b600054610100900460ff16158080156107e25750600054600160ff909116105b806107fc5750303b1580156107fc575060005460ff166001145b61085f5760405162461bcd60e51b815260206004820152602e60248201527f496e697469616c697a61626c653a20636f6e747261637420697320616c72656160448201526d191e481a5b9a5d1a585b1a5e995960921b606482015260840161059e565b6000805460ff191660011790558015610882576000805461ff0019166101001790555b61088a61101e565b61089261104d565b609780546001600160a01b0319166001600160a01b038616908117909155609884905560998390556040517f72fe3f5fb15c2671900303001fbe3a8adf9df5c76bfd269a9508c8753b9c35c990600090a26040518381527f98d1698e9a7ee55a2ded97de72077c93add26ce8534679021d0e7c44edcb325b9060200160405180910390a16040518281527f4cc9c78be70d0d7d2389ea36662194ed1bfcd576233fb4241620bb2ba8825dee9060200160405180910390a1801561098f576000805461ff0019169055604051600181527f7f26b83ff96e1f2b6a682f133852f6798a09c465da95921460cefb38474024989060200160405180910390a15b50505050565b60006109a183836109b0565b90506106968383836000610c4a565b6001600160a01b0382166000908152609d6020526040812054610674906109d89084906113da565b836106d8565b6109e6610bf0565b609780546001600160a01b0319166001600160a01b0383169081179091556040517f72fe3f5fb15c2671900303001fbe3a8adf9df5c76bfd269a9508c8753b9c35c990600090a250565b610a38610bf0565b60988190556040518181527f98d1698e9a7ee55a2ded97de72077c93add26ce8534679021d0e7c44edcb325b906020016105d8565b609a546000906001600160a01b0316610a8857506000610530565b609a546040516370a0823160e01b81526001600160a01b03848116600483015260009216906370a0823190602401602060405180830381865afa158015610ad3573d6000803e3d6000fd5b505050506040513d601f19601f82011682018060405250810190610af791906113ed565b90506000670de0b6b3a764000082670de0b6b3a7640000609b5488610b1c919061138e565b610b2691906113a5565b610b30919061138e565b610b3a91906113a5565b90506000670de0b6b3a764000060985487610b55919061138e565b610b5f91906113a5565b9050808210610b6e578061052a565b50949350505050565b610b7f610bf0565b6001600160a01b038116610be45760405162461bcd60e51b815260206004820152602660248201527f4f776e61626c653a206e6577206f776e657220697320746865207a65726f206160448201526564647265737360d01b606482015260840161059e565b610bed81610fcc565b50565b6033546001600160a01b031633146107c05760405162461bcd60e51b815260206004820181905260248201527f4f776e61626c653a2063616c6c6572206973206e6f7420746865206f776e6572604482015260640161059e565b610c5261107c565b6000670de0b6b3a764000060995484610c6b919061138e565b610c7591906113a5565b90506000610c838487610a6d565b9050600081670de0b6b3a764000060985487610c9f919061138e565b610ca991906113a5565b610cb391906113da565b6001600160a01b0388166000908152609d60205260409020549091508415610e2f578284610ce184896113c7565b610ceb91906113c7565b610cf591906113c7565b341015610d3b5760405162461bcd60e51b8152602060048201526014602482015273125b9cdd59999a58da595b9d081c185e5b595b9d60621b604482015260640161059e565b6001600160a01b0388166000908152609c6020908152604080832033845290915281208054899290610d6e9084906113c7565b90915550610d7e905087826113c7565b6001600160a01b03808a166000908152609d60205260409020829055609754919250610dab9116836110d5565b610dc8610db884866113c7565b6001600160a01b038a16906110d5565b8284610dd484896113c7565b610dde91906113c7565b610de891906113c7565b341115610e2a576000838584610dfe8a346113da565b610e0891906113da565b610e1291906113da565b610e1c91906113da565b9050610e2833826110d5565b505b610f58565b6001600160a01b0388166000908152609c60209081526040808320338452909152902054871115610e965760405162461bcd60e51b8152602060048201526011602482015270496e73756666696369656e74206b65797360781b604482015260640161059e565b6001600160a01b0388166000908152609c6020908152604080832033845290915281208054899290610ec99084906113da565b90915550610ed9905087826113da565b6001600160a01b0389166000908152609d602052604081208290559091508385610f03858a6113da565b610f0d91906113da565b610f1791906113da565b9050610f2333826110d5565b609754610f39906001600160a01b0316846110d5565b610f56610f4685876113c7565b6001600160a01b038b16906110d5565b505b8415156001600160a01b038916337f2c76e7a47fd53e2854856ac3f0a5f3ee40d15cfaa82266357ea9779c486ab9c38a8a87610f948a8c6113c7565b6040805194855260208501939093529183015260608201526080810186905260a00160405180910390a45050505061098f6001606555565b603380546001600160a01b038381166001600160a01b0319831681179093556040519116919082907f8be0079c531659141344cd1fd0a4f28419497f9722a3daafe3b4186f6b6457e090600090a35050565b600054610100900460ff166110455760405162461bcd60e51b815260040161059e90611406565b6107c06111f5565b600054610100900460ff166110745760405162461bcd60e51b815260040161059e90611406565b6107c0611225565b6002606554036110ce5760405162461bcd60e51b815260206004820152601f60248201527f5265656e7472616e637947756172643a207265656e7472616e742063616c6c00604482015260640161059e565b6002606555565b804710156111255760405162461bcd60e51b815260206004820152601d60248201527f416464726573733a20696e73756666696369656e742062616c616e6365000000604482015260640161059e565b6000826001600160a01b03168260405160006040518083038185875af1925050503d8060008114611172576040519150601f19603f3d011682016040523d82523d6000602084013e611177565b606091505b50509050806106965760405162461bcd60e51b815260206004820152603a60248201527f416464726573733a20756e61626c6520746f2073656e642076616c75652c207260448201527f6563697069656e74206d61792068617665207265766572746564000000000000606482015260840161059e565b6001606555565b600054610100900460ff1661121c5760405162461bcd60e51b815260040161059e90611406565b6107c033610fcc565b600054610100900460ff166111ee5760405162461bcd60e51b815260040161059e90611406565b6001600160a01b0381168114610bed57600080fd5b60006020828403121561127357600080fd5b81356106748161124c565b6000806040838503121561129157600080fd5b823561129c8161124c565b946020939093013593505050565b6000602082840312156112bc57600080fd5b5035919050565b600080604083850312156112d657600080fd5b50508035926020909101359150565b6000806000606084860312156112fa57600080fd5b83356113058161124c565b95602085013595506040909401359392505050565b6000806040838503121561132d57600080fd5b82359150602083013561133f8161124c565b809150509250929050565b6000806040838503121561135d57600080fd5b82356113688161124c565b9150602083013561133f8161124c565b634e487b7160e01b600052601160045260246000fd5b808202811582820484141761053057610530611378565b6000826113c257634e487b7160e01b600052601260045260246000fd5b500490565b8082018082111561053057610530611378565b8181038181111561053057610530611378565b6000602082840312156113ff57600080fd5b5051919050565b6020808252602b908201527f496e697469616c697a61626c653a20636f6e7472616374206973206e6f74206960408201526a6e697469616c697a696e6760a81b60608201526080019056fea2646970667358221220b39752392e5e0a8f3bdd7bdf48660a0f8151f91625d7dab43ade693ff3c2e98d64736f6c63430008140033",
  "linkReferences": {},
  "deployedLinkReferences": {}
}