{
  "_format": "hh-sol-artifact-1",
  "contractName": "Keys",
  "sourceName": "contracts/Keys.sol",
  "abi": [
    {
      "anonymous": false,
      "inputs": [
        {
          "indexed": true,
          "internalType": "uint256",
          "name": "keyId",
          "type": "uint256"
        },
        {
          "indexed": true,
          "internalType": "address",
          "name": "oldOwner",
          "type": "address"
        },
        {
          "indexed": true,
          "internalType": "address",
          "name": "newOwner",
          "type": "address"
        }
      ],
      "name": "ChangeKeyOwner",
      "type": "event"
    },
    {
      "anonymous": false,
      "inputs": [
        {
          "indexed": true,
          "internalType": "uint256",
          "name": "keyId",
          "type": "uint256"
        },
        {
          "indexed": false,
          "internalType": "enum Keys.KeyType",
          "name": "keyType",
          "type": "uint8"
        }
      ],
      "name": "ChangeKeyType",
      "type": "event"
    },
    {
      "anonymous": false,
      "inputs": [
        {
          "indexed": true,
          "internalType": "address",
          "name": "holder",
          "type": "address"
        },
        {
          "indexed": true,
          "internalType": "uint256",
          "name": "keyId",
          "type": "uint256"
        },
        {
          "indexed": false,
          "internalType": "uint256",
          "name": "fee",
          "type": "uint256"
        }
      ],
      "name": "ClaimHolderFee",
      "type": "event"
    },
    {
      "anonymous": false,
      "inputs": [
        {
          "indexed": false,
          "internalType": "uint8",
          "name": "version",
          "type": "uint8"
        }
      ],
      "name": "Initialized",
      "type": "event"
    },
    {
      "anonymous": false,
      "inputs": [
        {
          "indexed": true,
          "internalType": "uint256",
          "name": "keyId",
          "type": "uint256"
        },
        {
          "indexed": true,
          "internalType": "address",
          "name": "owner",
          "type": "address"
        },
        {
          "indexed": false,
          "internalType": "enum Keys.KeyType",
          "name": "keyType",
          "type": "uint8"
        }
      ],
      "name": "KeyCreated",
      "type": "event"
    },
    {
      "anonymous": false,
      "inputs": [
        {
          "indexed": true,
          "internalType": "uint256",
          "name": "keyId",
          "type": "uint256"
        }
      ],
      "name": "KeyDeleted",
      "type": "event"
    },
    {
      "anonymous": false,
      "inputs": [
        {
          "indexed": true,
          "internalType": "address",
          "name": "previousOwner",
          "type": "address"
        },
        {
          "indexed": true,
          "internalType": "address",
          "name": "newOwner",
          "type": "address"
        }
      ],
      "name": "OwnershipTransferred",
      "type": "event"
    },
    {
      "anonymous": false,
      "inputs": [
        {
          "indexed": false,
          "internalType": "uint256",
          "name": "percent",
          "type": "uint256"
        }
      ],
      "name": "SetCreatorFeePercent",
      "type": "event"
    },
    {
      "anonymous": false,
      "inputs": [
        {
          "indexed": false,
          "internalType": "uint256",
          "name": "percent",
          "type": "uint256"
        }
      ],
      "name": "SetGroupHolderFeePercent",
      "type": "event"
    },
    {
      "anonymous": false,
      "inputs": [
        {
          "indexed": false,
          "internalType": "uint256",
          "name": "percent",
          "type": "uint256"
        }
      ],
      "name": "SetHybridHolderFeePercent",
      "type": "event"
    },
    {
      "anonymous": false,
      "inputs": [
        {
          "indexed": false,
          "internalType": "uint256",
          "name": "percent",
          "type": "uint256"
        }
      ],
      "name": "SetHybridOwnerFeePercent",
      "type": "event"
    },
    {
      "anonymous": false,
      "inputs": [
        {
          "indexed": true,
          "internalType": "address",
          "name": "destination",
          "type": "address"
        }
      ],
      "name": "SetProtocolFeeDestination",
      "type": "event"
    },
    {
      "anonymous": false,
      "inputs": [
        {
          "indexed": false,
          "internalType": "uint256",
          "name": "percent",
          "type": "uint256"
        }
      ],
      "name": "SetProtocolFeePercent",
      "type": "event"
    },
    {
      "anonymous": false,
      "inputs": [
        {
          "indexed": true,
          "internalType": "address",
          "name": "trader",
          "type": "address"
        },
        {
          "indexed": true,
          "internalType": "uint256",
          "name": "keyId",
          "type": "uint256"
        },
        {
          "indexed": true,
          "internalType": "bool",
          "name": "isBuy",
          "type": "bool"
        },
        {
          "indexed": false,
          "internalType": "uint256",
          "name": "amount",
          "type": "uint256"
        },
        {
          "indexed": false,
          "internalType": "uint256",
          "name": "price",
          "type": "uint256"
        },
        {
          "indexed": false,
          "internalType": "uint256",
          "name": "protocolFee",
          "type": "uint256"
        },
        {
          "indexed": false,
          "internalType": "uint256",
          "name": "ownerFee",
          "type": "uint256"
        },
        {
          "indexed": false,
          "internalType": "uint256",
          "name": "holderFee",
          "type": "uint256"
        },
        {
          "indexed": false,
          "internalType": "uint256",
          "name": "supply",
          "type": "uint256"
        }
      ],
      "name": "Trade",
      "type": "event"
    },
    {
      "inputs": [
        {
          "internalType": "uint256",
          "name": "keyId",
          "type": "uint256"
        },
        {
          "internalType": "uint256",
          "name": "amount",
          "type": "uint256"
        }
      ],
      "name": "buyKeys",
      "outputs": [],
      "stateMutability": "payable",
      "type": "function"
    },
    {
      "inputs": [
        {
          "internalType": "uint256",
          "name": "keyId",
          "type": "uint256"
        },
        {
          "internalType": "address",
          "name": "newOwner",
          "type": "address"
        }
      ],
      "name": "changeKeyOwner",
      "outputs": [],
      "stateMutability": "nonpayable",
      "type": "function"
    },
    {
      "inputs": [
        {
          "internalType": "uint256",
          "name": "keyId",
          "type": "uint256"
        },
        {
          "internalType": "enum Keys.KeyType",
          "name": "keyType",
          "type": "uint8"
        }
      ],
      "name": "changeKeyType",
      "outputs": [],
      "stateMutability": "nonpayable",
      "type": "function"
    },
    {
      "inputs": [
        {
          "internalType": "uint256",
          "name": "keyId",
          "type": "uint256"
        }
      ],
      "name": "claimHolderFee",
      "outputs": [],
      "stateMutability": "nonpayable",
      "type": "function"
    },
    {
      "inputs": [
        {
          "internalType": "uint256",
          "name": "keyId",
          "type": "uint256"
        },
        {
          "internalType": "address",
          "name": "holder",
          "type": "address"
        }
      ],
      "name": "claimableHolderFee",
      "outputs": [
        {
          "internalType": "uint256",
          "name": "claimable",
          "type": "uint256"
        }
      ],
      "stateMutability": "view",
      "type": "function"
    },
    {
      "inputs": [
        {
          "internalType": "enum Keys.KeyType",
          "name": "keyType",
          "type": "uint8"
        }
      ],
      "name": "createKey",
      "outputs": [
        {
          "internalType": "uint256",
          "name": "keyId",
          "type": "uint256"
        }
      ],
      "stateMutability": "nonpayable",
      "type": "function"
    },
    {
      "inputs": [],
      "name": "creatorFeePercent",
      "outputs": [
        {
          "internalType": "uint256",
          "name": "",
          "type": "uint256"
        }
      ],
      "stateMutability": "view",
      "type": "function"
    },
    {
      "inputs": [
        {
          "internalType": "uint256",
          "name": "keyId",
          "type": "uint256"
        }
      ],
      "name": "deleteKey",
      "outputs": [],
      "stateMutability": "nonpayable",
      "type": "function"
    },
    {
      "inputs": [
        {
          "internalType": "uint256",
          "name": "keyId",
          "type": "uint256"
        }
      ],
      "name": "exists",
      "outputs": [
        {
          "internalType": "bool",
          "name": "",
          "type": "bool"
        }
      ],
      "stateMutability": "view",
      "type": "function"
    },
    {
      "inputs": [
        {
          "internalType": "uint256",
          "name": "keyId",
          "type": "uint256"
        },
        {
          "internalType": "uint256",
          "name": "amount",
          "type": "uint256"
        }
      ],
      "name": "getBuyPrice",
      "outputs": [
        {
          "internalType": "uint256",
          "name": "",
          "type": "uint256"
        }
      ],
      "stateMutability": "view",
      "type": "function"
    },
    {
      "inputs": [
        {
          "internalType": "uint256",
          "name": "keyId",
          "type": "uint256"
        },
        {
          "internalType": "uint256",
          "name": "amount",
          "type": "uint256"
        }
      ],
      "name": "getBuyPriceAfterFee",
      "outputs": [
        {
          "internalType": "uint256",
          "name": "",
          "type": "uint256"
        }
      ],
      "stateMutability": "view",
      "type": "function"
    },
    {
      "inputs": [
        {
          "internalType": "uint256",
          "name": "supply",
          "type": "uint256"
        },
        {
          "internalType": "uint256",
          "name": "amount",
          "type": "uint256"
        }
      ],
      "name": "getPrice",
      "outputs": [
        {
          "internalType": "uint256",
          "name": "",
          "type": "uint256"
        }
      ],
      "stateMutability": "view",
      "type": "function"
    },
    {
      "inputs": [
        {
          "internalType": "uint256",
          "name": "keyId",
          "type": "uint256"
        },
        {
          "internalType": "uint256",
          "name": "amount",
          "type": "uint256"
        }
      ],
      "name": "getSellPrice",
      "outputs": [
        {
          "internalType": "uint256",
          "name": "",
          "type": "uint256"
        }
      ],
      "stateMutability": "view",
      "type": "function"
    },
    {
      "inputs": [
        {
          "internalType": "uint256",
          "name": "keyId",
          "type": "uint256"
        },
        {
          "internalType": "uint256",
          "name": "amount",
          "type": "uint256"
        }
      ],
      "name": "getSellPriceAfterFee",
      "outputs": [
        {
          "internalType": "uint256",
          "name": "",
          "type": "uint256"
        }
      ],
      "stateMutability": "view",
      "type": "function"
    },
    {
      "inputs": [],
      "name": "groupHolderFeePercent",
      "outputs": [
        {
          "internalType": "uint256",
          "name": "",
          "type": "uint256"
        }
      ],
      "stateMutability": "view",
      "type": "function"
    },
    {
      "inputs": [
        {
          "internalType": "uint256",
          "name": "",
          "type": "uint256"
        },
        {
          "internalType": "address",
          "name": "",
          "type": "address"
        }
      ],
      "name": "holders",
      "outputs": [
        {
          "internalType": "uint256",
          "name": "balance",
          "type": "uint256"
        },
        {
          "internalType": "int256",
          "name": "feeDebt",
          "type": "int256"
        }
      ],
      "stateMutability": "view",
      "type": "function"
    },
    {
      "inputs": [],
      "name": "hybridHolderFeePercent",
      "outputs": [
        {
          "internalType": "uint256",
          "name": "",
          "type": "uint256"
        }
      ],
      "stateMutability": "view",
      "type": "function"
    },
    {
      "inputs": [],
      "name": "hybridOwnerFeePercent",
      "outputs": [
        {
          "internalType": "uint256",
          "name": "",
          "type": "uint256"
        }
      ],
      "stateMutability": "view",
      "type": "function"
    },
    {
      "inputs": [
        {
          "internalType": "uint256",
          "name": "_baseDivider",
          "type": "uint256"
        },
        {
          "internalType": "address payable",
          "name": "_protocolFeeDestination",
          "type": "address"
        },
        {
          "internalType": "uint256",
          "name": "_protocolFeePercent",
          "type": "uint256"
        },
        {
          "internalType": "uint256",
          "name": "_creatorFeePercent",
          "type": "uint256"
        },
        {
          "internalType": "uint256",
          "name": "_groupHolderFeePercent",
          "type": "uint256"
        },
        {
          "internalType": "uint256",
          "name": "_hybridOwnerFeePercent",
          "type": "uint256"
        },
        {
          "internalType": "uint256",
          "name": "_hybridHolderFeePercent",
          "type": "uint256"
        }
      ],
      "name": "initialize",
      "outputs": [],
      "stateMutability": "nonpayable",
      "type": "function"
    },
    {
      "inputs": [
        {
          "internalType": "uint256",
          "name": "",
          "type": "uint256"
        }
      ],
      "name": "keys",
      "outputs": [
        {
          "internalType": "enum Keys.KeyType",
          "name": "keyType",
          "type": "uint8"
        },
        {
          "internalType": "address",
          "name": "owner",
          "type": "address"
        },
        {
          "internalType": "uint256",
          "name": "supply",
          "type": "uint256"
        },
        {
          "internalType": "uint256",
          "name": "accFeePerUnit",
          "type": "uint256"
        }
      ],
      "stateMutability": "view",
      "type": "function"
    },
    {
      "inputs": [],
      "name": "nextKeyId",
      "outputs": [
        {
          "internalType": "uint256",
          "name": "",
          "type": "uint256"
        }
      ],
      "stateMutability": "view",
      "type": "function"
    },
    {
      "inputs": [],
      "name": "owner",
      "outputs": [
        {
          "internalType": "address",
          "name": "",
          "type": "address"
        }
      ],
      "stateMutability": "view",
      "type": "function"
    },
    {
      "inputs": [],
      "name": "protocolFeeDestination",
      "outputs": [
        {
          "internalType": "address payable",
          "name": "",
          "type": "address"
        }
      ],
      "stateMutability": "view",
      "type": "function"
    },
    {
      "inputs": [],
      "name": "protocolFeePercent",
      "outputs": [
        {
          "internalType": "uint256",
          "name": "",
          "type": "uint256"
        }
      ],
      "stateMutability": "view",
      "type": "function"
    },
    {
      "inputs": [],
      "name": "renounceOwnership",
      "outputs": [],
      "stateMutability": "nonpayable",
      "type": "function"
    },
    {
      "inputs": [
        {
          "internalType": "uint256",
          "name": "keyId",
          "type": "uint256"
        },
        {
          "internalType": "uint256",
          "name": "amount",
          "type": "uint256"
        }
      ],
      "name": "sellKeys",
      "outputs": [],
      "stateMutability": "nonpayable",
      "type": "function"
    },
    {
      "inputs": [
        {
          "internalType": "uint256",
          "name": "_feePercent",
          "type": "uint256"
        }
      ],
      "name": "setCreatorFeePercent",
      "outputs": [],
      "stateMutability": "nonpayable",
      "type": "function"
    },
    {
      "inputs": [
        {
          "internalType": "uint256",
          "name": "_feePercent",
          "type": "uint256"
        }
      ],
      "name": "setGroupHolderFeePercent",
      "outputs": [],
      "stateMutability": "nonpayable",
      "type": "function"
    },
    {
      "inputs": [
        {
          "internalType": "uint256",
          "name": "_feePercent",
          "type": "uint256"
        }
      ],
      "name": "setHybridHolderFeePercent",
      "outputs": [],
      "stateMutability": "nonpayable",
      "type": "function"
    },
    {
      "inputs": [
        {
          "internalType": "uint256",
          "name": "_feePercent",
          "type": "uint256"
        }
      ],
      "name": "setHybridOwnerFeePercent",
      "outputs": [],
      "stateMutability": "nonpayable",
      "type": "function"
    },
    {
      "inputs": [
        {
          "internalType": "address payable",
          "name": "_feeDestination",
          "type": "address"
        }
      ],
      "name": "setProtocolFeeDestination",
      "outputs": [],
      "stateMutability": "nonpayable",
      "type": "function"
    },
    {
      "inputs": [
        {
          "internalType": "uint256",
          "name": "_feePercent",
          "type": "uint256"
        }
      ],
      "name": "setProtocolFeePercent",
      "outputs": [],
      "stateMutability": "nonpayable",
      "type": "function"
    },
    {
      "inputs": [
        {
          "internalType": "address",
          "name": "newOwner",
          "type": "address"
        }
      ],
      "name": "transferOwnership",
      "outputs": [],
      "stateMutability": "nonpayable",
      "type": "function"
    }
  ],
  "bytecode": "0x608060405234801561001057600080fd5b50612437806100206000396000f3fe6080604052600436106101ee5760003560e01c80638016625a1161010d578063a4b1835a116100a0578063d0165de21161006f578063d0165de214610612578063d44ae68b14610628578063d6e6eb9f1461063e578063ec4850af14610654578063f2fde38b1461066a57600080fd5b8063a4b1835a1461056b578063c157253d146105bf578063c881a48a146105df578063cd9c7121146105f257600080fd5b8063939cce01116100dc578063939cce01146104eb5780639477d85d1461050b578063a10786b01461052b578063a49834211461054b57600080fd5b80638016625a1461046d5780638da5cb5b1461048d5780639336193c146104ab57806393681511146104cb57600080fd5b80634f558e79116101855780636ff6c4b8116101545780636ff6c4b8146103f8578063715018a6146104185780637809dea61461042d5780637d62b70e1461044d57600080fd5b80634f558e79146103555780635097866d146103a257806353613dd3146103c25780635cf4ee91146103d857600080fd5b80632f5e9eb3116101c15780632f5e9eb3146102c75780632f5ed41c146102e75780634279aba6146103075780634ce7957c1461031d57600080fd5b8063063a741f146101f35780630cb6aaf114610226578063113ea6b01461028557806321ef70cd146102a7575b600080fd5b3480156101ff57600080fd5b5061021361020e366004612110565b61068a565b6040519081526020015b60405180910390f35b34801561023257600080fd5b50610275610241366004612132565b609f6020526000908152604090208054600182015460029092015460ff8216926101009092046001600160a01b0316919084565b60405161021d9493929190612183565b34801561029157600080fd5b506102a56102a0366004612132565b610831565b005b3480156102b357600080fd5b506102a56102c2366004612132565b610875565b3480156102d357600080fd5b506102a56102e2366004612132565b6108b2565b3480156102f357600080fd5b506102a56103023660046121ca565b610990565b34801561031357600080fd5b50610213609e5481565b34801561032957600080fd5b5060985461033d906001600160a01b031681565b6040516001600160a01b03909116815260200161021d565b34801561036157600080fd5b50610392610370366004612132565b6000908152609f602052604090205461010090046001600160a01b0316151590565b604051901515815260200161021d565b3480156103ae57600080fd5b506102a56103bd366004612237565b610c14565b3480156103ce57600080fd5b50610213609a5481565b3480156103e457600080fd5b506102136103f3366004612110565b610cdb565b34801561040457600080fd5b506102a5610413366004612132565b610dfd565b34801561042457600080fd5b506102a5610e3a565b34801561043957600080fd5b506102a5610448366004612132565b610e4e565b34801561045957600080fd5b50610213610468366004612263565b610f72565b34801561047957600080fd5b506102a5610488366004612132565b61106c565b34801561049957600080fd5b506033546001600160a01b031661033d565b3480156104b757600080fd5b506102a56104c6366004612110565b6110a9565b3480156104d757600080fd5b506102136104e636600461227e565b61150a565b3480156104f757600080fd5b506102a561050636600461227e565b6115e8565b34801561051757600080fd5b50610213610526366004612110565b6116a5565b34801561053757600080fd5b506102a56105463660046122ae565b6116d3565b34801561055757600080fd5b506102a5610566366004612132565b611725565b34801561057757600080fd5b506105aa61058636600461227e565b60a06020908152600092835260408084209091529082529020805460019091015482565b6040805192835260208301919091520161021d565b3480156105cb57600080fd5b506102136105da366004612110565b611762565b6102a56105ed366004612110565b61177e565b3480156105fe57600080fd5b5061021361060d366004612110565b611c21565b34801561061e57600080fd5b50610213609b5481565b34801561063457600080fd5b50610213609d5481565b34801561064a57600080fd5b5061021360995481565b34801561066057600080fd5b50610213609c5481565b34801561067657600080fd5b506102a56106853660046122ae565b611dbb565b6000806106978484611762565b90506000670de0b6b3a7640000609954836106b291906122e1565b6106bc91906122f8565b9050600080806000888152609f602052604090205460ff1660028111156106e5576106e561214b565b0361073257670de0b6b3a7640000609a548561070191906122e1565b61070b91906122f8565b9150670de0b6b3a76400006107218560006122e1565b61072b91906122f8565b9050610804565b60016000888152609f602052604090205460ff1660028111156107575761075761214b565b0361079357670de0b6b3a76400006107708560006122e1565b61077a91906122f8565b9150670de0b6b3a7640000609b548561072191906122e1565b60026000888152609f602052604090205460ff1660028111156107b8576107b861214b565b0361080457670de0b6b3a7640000609c54856107d491906122e1565b6107de91906122f8565b9150670de0b6b3a7640000609d54856107f791906122e1565b61080191906122f8565b90505b8082610810858761231a565b61081a919061231a565b610824919061231a565b9450505050505b92915050565b610839611e31565b609b8190556040518181527fc4b353a0bbd99f4ffaa53bd260ce68719b0bbf53cea578fc8a2679564fd53265906020015b60405180910390a150565b61087d611e31565b609c8190556040518181527fd5bcbb296d36816e7fd5fca2575619a47e5b532714f57592b4b3af23a0368e119060200161086a565b6000818152609f602052604090205461010090046001600160a01b0316331480156108ec57506000818152609f6020526040902060010154155b61093d5760405162461bcd60e51b815260206004820152601d60248201527f4e6f74206b6579206f776e6572206f7220737570706c79206e6f74203000000060448201526064015b60405180910390fd5b6000818152609f602052604080822080546001600160a81b0319168155600181018390556002018290555182917fc6b8144abd08ea608159649baeadc067627b004ba268728892723a5001fc0c0291a250565b600054610100900460ff16158080156109b05750600054600160ff909116105b806109ca5750303b1580156109ca575060005460ff166001145b610a2d5760405162461bcd60e51b815260206004820152602e60248201527f496e697469616c697a61626c653a20636f6e747261637420697320616c72656160448201526d191e481a5b9a5d1a585b1a5e995960921b6064820152608401610934565b6000805460ff191660011790558015610a50576000805461ff0019166101001790555b610a58611e8b565b610a60611eba565b6097889055609880546001600160a01b0319166001600160a01b0389169081179091556099879055609a869055609b859055609c849055609d8390556040517f72fe3f5fb15c2671900303001fbe3a8adf9df5c76bfd269a9508c8753b9c35c990600090a26040518681527f98d1698e9a7ee55a2ded97de72077c93add26ce8534679021d0e7c44edcb325b9060200160405180910390a16040518581527fcac5fb194ae0d660ab1b68f6561a22ab792ca0bbe87b5392c3ec528fc25a0c0f9060200160405180910390a16040518481527fc4b353a0bbd99f4ffaa53bd260ce68719b0bbf53cea578fc8a2679564fd532659060200160405180910390a16040518381527fd5bcbb296d36816e7fd5fca2575619a47e5b532714f57592b4b3af23a0368e119060200160405180910390a16040518281527f3e7c41cff017fe49c76f9e1124e07a6c1f7e4b3c62d830e4250df793a7a0cccc9060200160405180910390a18015610c0a576000805461ff0019169055604051600181527f7f26b83ff96e1f2b6a682f133852f6798a09c465da95921460cefb38474024989060200160405180910390a15b5050505050505050565b6000828152609f602052604090205461010090046001600160a01b03163314610c6f5760405162461bcd60e51b815260206004820152600d60248201526c2737ba1035b2bc9037bbb732b960991b6044820152606401610934565b6000828152609f60205260409020805482919060ff19166001836002811115610c9a57610c9a61214b565b0217905550817f30b137d9eacdf7265eb0f15aae49cebeabbcbf0e97ca8a7e534bf4bd61a260fe82604051610ccf919061232d565b60405180910390a25050565b6000808315610d36576006610cf160018661233b565b610cfc9060026122e1565b610d0790600161231a565b85610d1360018261233b565b610d1d91906122e1565b610d2791906122e1565b610d3191906122f8565b610d39565b60005b9050600084158015610d4b5750836001145b610dc057600684610d5d60018861233b565b610d67919061231a565b610d729060026122e1565b610d7d90600161231a565b610d87868861231a565b86610d9360018a61233b565b610d9d919061231a565b610da791906122e1565b610db191906122e1565b610dbb91906122f8565b610dc3565b60005b90506000610dd1838361233b565b609754909150610de982670de0b6b3a76400006122e1565b610df391906122f8565b9695505050505050565b610e05611e31565b609a8190556040518181527fcac5fb194ae0d660ab1b68f6561a22ab792ca0bbe87b5392c3ec528fc25a0c0f9060200161086a565b610e42611e31565b610e4c6000611ee9565b565b610e56611f3b565b6000818152609f60205260408082208151608081019092528054829060ff166002811115610e8657610e8661214b565b6002811115610e9757610e9761214b565b8152815461010090046001600160a01b03166020808301919091526001830154604080840191909152600290930154606092830152600086815260a08252838120338252909152918220908301518154939450909261271091610ef9916122e1565b610f0391906122f8565b90506000826001015482610f17919061234e565b600184018390559050610f2a3382611f94565b604051818152859033907f841d6c5238e11a6af9cd83b97e21794b68bde1ed5e5d2733abc5bfc611ce51ca9060200160405180910390a350505050610f6f6001606555565b50565b609e805460009182610f8383612375565b9190505590506040518060800160405280836002811115610fa657610fa661214b565b815233602080830191909152600060408084018290526060909301819052848152609f9091522081518154829060ff19166001836002811115610feb57610feb61214b565b0217905550602082015181546001600160a01b0390911661010002610100600160a81b0319909116178155604080830151600183015560609092015160029091015551339082907fbda5023779bbda92001f64733694ded1cda1ebf5fe9a54c34a966a005fc75d399061105f90869061232d565b60405180910390a3919050565b611074611e31565b609d8190556040518181527f3e7c41cff017fe49c76f9e1124e07a6c1f7e4b3c62d830e4250df793a7a0cccc9060200161086a565b6110b1611f3b565b6000828152609f602052604090205461010090046001600160a01b031661110f5760405162461bcd60e51b815260206004820152601260248201527112d95e48191bd95cc81b9bdd08195e1a5cdd60721b6044820152606401610934565b6000828152609f60205260408082208151608081019092528054829060ff16600281111561113f5761113f61214b565b60028111156111505761115061214b565b8152815461010090046001600160a01b03166020820152600182015460408201526002909101546060909101529050600061118b84846116a5565b90506000670de0b6b3a7640000609954836111a691906122e1565b6111b091906122f8565b905060008080855160028111156111c9576111c961214b565b0361121657670de0b6b3a7640000609a54856111e591906122e1565b6111ef91906122f8565b9150670de0b6b3a76400006112058560006122e1565b61120f91906122f8565b90506112c8565b60018551600281111561122b5761122b61214b565b0361126757670de0b6b3a76400006112448560006122e1565b61124e91906122f8565b9150670de0b6b3a7640000609b548561120591906122e1565b60028551600281111561127c5761127c61214b565b036112c857670de0b6b3a7640000609c548561129891906122e1565b6112a291906122f8565b9150670de0b6b3a7640000609d54856112bb91906122e1565b6112c591906122f8565b90505b600087815260a060209081526040808320338452909152902081156113175760408601516112f8612710846122e1565b61130291906122f8565b86606001818151611313919061231a565b9052505b8686604001818151611329919061233b565b9052506000888152609f602052604090208651815488929190829060ff1916600183600281111561135c5761135c61214b565b0217905550602082015181546001600160a01b0390911661010002610100600160a81b03199091161781556040820151600182015560609091015160029091015580548711156113e55760405162461bcd60e51b8152602060048201526014602482015273496e73756666696369656e742062616c616e636560601b6044820152606401610934565b868160000160008282546113f9919061233b565b909155505060608601516127109061141190896122e1565b61141b91906122f8565b81600101600082825461142e919061234e565b90915550600090508284611442878961233b565b61144c919061233b565b611456919061233b565b90506114623382611f94565b8315611480576020870151611480906001600160a01b031685611f94565b609854611496906001600160a01b031686611f94565b60408088015181518a815260208101899052918201879052606082018690526080820185905260a08201526000908a9033907fb8099acc1c84bf6f63b9ed9adcc4a35671c4892f876e1f382d0f8044e15a6d009060c00160405180910390a4505050505050506115066001606555565b5050565b6000828152609f6020526040808220815160808101909252805483929190829060ff16600281111561153e5761153e61214b565b600281111561154f5761154f61214b565b815281546001600160a01b03610100909104811660208084019190915260018085015460408086019190915260029095015460609485015260008a815260a08352858120938a1681529282528483208551808701909652805480875291015491850191909152918401519394509192612710916115cc91906122e1565b6115d691906122f8565b9050816020015181610df3919061234e565b6000828152609f602052604090205461010090046001600160a01b031633146116435760405162461bcd60e51b815260206004820152600d60248201526c2737ba1035b2bc9037bbb732b960991b6044820152606401610934565b6000828152609f60205260408082208054610100600160a81b0319166101006001600160a01b0386169081029190911790915590519091339185917f926af31f821913105c336cd134873bacb2369df717ea52f466a9b1cc43ec694991a45050565b6000828152609f60205260408120600101546116cc906116c690849061233b565b83610cdb565b9392505050565b6116db611e31565b609880546001600160a01b0319166001600160a01b0383169081179091556040517f72fe3f5fb15c2671900303001fbe3a8adf9df5c76bfd269a9508c8753b9c35c990600090a250565b61172d611e31565b60998190556040518181527f98d1698e9a7ee55a2ded97de72077c93add26ce8534679021d0e7c44edcb325b9060200161086a565b6000828152609f60205260408120600101546116cc9083610cdb565b611786611f3b565b6000828152609f602052604090205461010090046001600160a01b03166117e45760405162461bcd60e51b815260206004820152601260248201527112d95e48191bd95cc81b9bdd08195e1a5cdd60721b6044820152606401610934565b6000828152609f60205260408082208151608081019092528054829060ff1660028111156118145761181461214b565b60028111156118255761182561214b565b8152815461010090046001600160a01b0316602082015260018201546040820152600290910154606090910152905060006118608484611762565b90506000670de0b6b3a76400006099548361187b91906122e1565b61188591906122f8565b9050600080808551600281111561189e5761189e61214b565b036118eb57670de0b6b3a7640000609a54856118ba91906122e1565b6118c491906122f8565b9150670de0b6b3a76400006118da8560006122e1565b6118e491906122f8565b905061199d565b6001855160028111156119005761190061214b565b0361193c57670de0b6b3a76400006119198560006122e1565b61192391906122f8565b9150670de0b6b3a7640000609b54856118da91906122e1565b6002855160028111156119515761195161214b565b0361199d57670de0b6b3a7640000609c548561196d91906122e1565b61197791906122f8565b9150670de0b6b3a7640000609d548561199091906122e1565b61199a91906122f8565b90505b80826119a9858761231a565b6119b3919061231a565b6119bd919061231a565b341015611a015760405162461bcd60e51b8152602060048201526012602482015271496e73756666696369656e742066756e647360701b6044820152606401610934565b600087815260a0602090815260408083203384529091528120805490918891839190611a2e90849061231a565b9091555050606086015161271090611a4690896122e1565b611a5091906122f8565b816001016000828254611a63919061238e565b925050819055508686604001818151611a7c919061231a565b9052508115611ab5576040860151611a96612710846122e1565b611aa091906122f8565b86606001818151611ab1919061231a565b9052505b6000888152609f602052604090208651815488929190829060ff19166001836002811115611ae557611ae561214b565b021790555060208201518154610100600160a81b0319166101006001600160a01b039283160217825560408301516001830155606090920151600290910155609854611b32911685611f94565b8215611b50576020860151611b50906001600160a01b031684611f94565b8183611b5c868861231a565b611b66919061231a565b611b70919061231a565b341115611bb2576000828486611b86893461233b565b611b90919061233b565b611b9a919061233b565b611ba4919061233b565b9050611bb03382611f94565b505b604080870151815189815260208101889052918201869052606082018590526080820184905260a0820152600190899033907fb8099acc1c84bf6f63b9ed9adcc4a35671c4892f876e1f382d0f8044e15a6d009060c00160405180910390a45050505050506115066001606555565b600080611c2e84846116a5565b90506000670de0b6b3a764000060995483611c4991906122e1565b611c5391906122f8565b9050600080806000888152609f602052604090205460ff166002811115611c7c57611c7c61214b565b03611cc957670de0b6b3a7640000609a5485611c9891906122e1565b611ca291906122f8565b9150670de0b6b3a7640000611cb88560006122e1565b611cc291906122f8565b9050611d9b565b60016000888152609f602052604090205460ff166002811115611cee57611cee61214b565b03611d2a57670de0b6b3a7640000611d078560006122e1565b611d1191906122f8565b9150670de0b6b3a7640000609b5485611cb891906122e1565b60026000888152609f602052604090205460ff166002811115611d4f57611d4f61214b565b03611d9b57670de0b6b3a7640000609c5485611d6b91906122e1565b611d7591906122f8565b9150670de0b6b3a7640000609d5485611d8e91906122e1565b611d9891906122f8565b90505b8082611da7858761233b565b611db1919061233b565b610824919061233b565b611dc3611e31565b6001600160a01b038116611e285760405162461bcd60e51b815260206004820152602660248201527f4f776e61626c653a206e6577206f776e657220697320746865207a65726f206160448201526564647265737360d01b6064820152608401610934565b610f6f81611ee9565b6033546001600160a01b03163314610e4c5760405162461bcd60e51b815260206004820181905260248201527f4f776e61626c653a2063616c6c6572206973206e6f7420746865206f776e65726044820152606401610934565b600054610100900460ff16611eb25760405162461bcd60e51b8152600401610934906123b6565b610e4c6120b9565b600054610100900460ff16611ee15760405162461bcd60e51b8152600401610934906123b6565b610e4c6120e9565b603380546001600160a01b038381166001600160a01b0319831681179093556040519116919082907f8be0079c531659141344cd1fd0a4f28419497f9722a3daafe3b4186f6b6457e090600090a35050565b600260655403611f8d5760405162461bcd60e51b815260206004820152601f60248201527f5265656e7472616e637947756172643a207265656e7472616e742063616c6c006044820152606401610934565b6002606555565b80471015611fe45760405162461bcd60e51b815260206004820152601d60248201527f416464726573733a20696e73756666696369656e742062616c616e63650000006044820152606401610934565b6000826001600160a01b03168260405160006040518083038185875af1925050503d8060008114612031576040519150601f19603f3d011682016040523d82523d6000602084013e612036565b606091505b50509050806120ad5760405162461bcd60e51b815260206004820152603a60248201527f416464726573733a20756e61626c6520746f2073656e642076616c75652c207260448201527f6563697069656e74206d617920686176652072657665727465640000000000006064820152608401610934565b505050565b6001606555565b600054610100900460ff166120e05760405162461bcd60e51b8152600401610934906123b6565b610e4c33611ee9565b600054610100900460ff166120b25760405162461bcd60e51b8152600401610934906123b6565b6000806040838503121561212357600080fd5b50508035926020909101359150565b60006020828403121561214457600080fd5b5035919050565b634e487b7160e01b600052602160045260246000fd5b6003811061217f57634e487b7160e01b600052602160045260246000fd5b9052565b608081016121918287612161565b6001600160a01b039490941660208201526040810192909252606090910152919050565b6001600160a01b0381168114610f6f57600080fd5b600080600080600080600060e0888a0312156121e557600080fd5b8735965060208801356121f7816121b5565b96999698505050506040850135946060810135946080820135945060a0820135935060c0909101359150565b80356003811061223257600080fd5b919050565b6000806040838503121561224a57600080fd5b8235915061225a60208401612223565b90509250929050565b60006020828403121561227557600080fd5b6116cc82612223565b6000806040838503121561229157600080fd5b8235915060208301356122a3816121b5565b809150509250929050565b6000602082840312156122c057600080fd5b81356116cc816121b5565b634e487b7160e01b600052601160045260246000fd5b808202811582820484141761082b5761082b6122cb565b60008261231557634e487b7160e01b600052601260045260246000fd5b500490565b8082018082111561082b5761082b6122cb565b6020810161082b8284612161565b8181038181111561082b5761082b6122cb565b818103600083128015838313168383128216171561236e5761236e6122cb565b5092915050565b600060018201612387576123876122cb565b5060010190565b80820182811260008312801582168215821617156123ae576123ae6122cb565b505092915050565b6020808252602b908201527f496e697469616c697a61626c653a20636f6e7472616374206973206e6f74206960408201526a6e697469616c697a696e6760a81b60608201526080019056fea2646970667358221220c3e0cc6288dce3ba456f882f0903b176a6f12fc1ab5eeca4688fab29ea921cd264736f6c63430008170033",
  "linkReferences": {},
  "deployedLinkReferences": {}
}